{
  "_format": "hh-sol-artifact-1",
  "contractName": "NFT",
  "sourceName": "contracts/NFT.sol",
  "abi": [
    {
      "inputs": [
        {
          "internalType": "address",
          "name": "marketplaceAddress",
          "type": "address"
        }
      ],
      "stateMutability": "nonpayable",
      "type": "constructor"
    },
    {
      "anonymous": false,
      "inputs": [
        {
          "indexed": true,
          "internalType": "address",
          "name": "owner",
          "type": "address"
        },
        {
          "indexed": true,
          "internalType": "address",
          "name": "approved",
          "type": "address"
        },
        {
          "indexed": true,
          "internalType": "uint256",
          "name": "tokenId",
          "type": "uint256"
        }
      ],
      "name": "Approval",
      "type": "event"
    },
    {
      "anonymous": false,
      "inputs": [
        {
          "indexed": true,
          "internalType": "address",
          "name": "owner",
          "type": "address"
        },
        {
          "indexed": true,
          "internalType": "address",
          "name": "operator",
          "type": "address"
        },
        {
          "indexed": false,
          "internalType": "bool",
          "name": "approved",
          "type": "bool"
        }
      ],
      "name": "ApprovalForAll",
      "type": "event"
    },
    {
      "anonymous": false,
      "inputs": [
        {
          "indexed": true,
          "internalType": "address",
          "name": "from",
          "type": "address"
        },
        {
          "indexed": true,
          "internalType": "address",
          "name": "to",
          "type": "address"
        },
        {
          "indexed": true,
          "internalType": "uint256",
          "name": "tokenId",
          "type": "uint256"
        }
      ],
      "name": "Transfer",
      "type": "event"
    },
    {
      "inputs": [
        {
          "internalType": "address",
          "name": "to",
          "type": "address"
        },
        {
          "internalType": "uint256",
          "name": "tokenId",
          "type": "uint256"
        }
      ],
      "name": "approve",
      "outputs": [],
      "stateMutability": "nonpayable",
      "type": "function"
    },
    {
      "inputs": [
        {
          "internalType": "address",
          "name": "owner",
          "type": "address"
        }
      ],
      "name": "balanceOf",
      "outputs": [
        {
          "internalType": "uint256",
          "name": "",
          "type": "uint256"
        }
      ],
      "stateMutability": "view",
      "type": "function"
    },
    {
      "inputs": [
        {
          "internalType": "string",
          "name": "tokenURI",
          "type": "string"
        }
      ],
      "name": "createToken",
      "outputs": [
        {
          "internalType": "uint256",
          "name": "",
          "type": "uint256"
        }
      ],
      "stateMutability": "nonpayable",
      "type": "function"
    },
    {
      "inputs": [
        {
          "internalType": "uint256",
          "name": "tokenId",
          "type": "uint256"
        }
      ],
      "name": "getApproved",
      "outputs": [
        {
          "internalType": "address",
          "name": "",
          "type": "address"
        }
      ],
      "stateMutability": "view",
      "type": "function"
    },
    {
      "inputs": [
        {
          "internalType": "address",
          "name": "owner",
          "type": "address"
        },
        {
          "internalType": "address",
          "name": "operator",
          "type": "address"
        }
      ],
      "name": "isApprovedForAll",
      "outputs": [
        {
          "internalType": "bool",
          "name": "",
          "type": "bool"
        }
      ],
      "stateMutability": "view",
      "type": "function"
    },
    {
      "inputs": [
        {
          "internalType": "bool",
          "name": "value",
          "type": "bool"
        },
        {
          "internalType": "uint256",
          "name": "tokenId",
          "type": "uint256"
        }
      ],
      "name": "modifyRental",
      "outputs": [],
      "stateMutability": "nonpayable",
      "type": "function"
    },
    {
      "inputs": [],
      "name": "name",
      "outputs": [
        {
          "internalType": "string",
          "name": "",
          "type": "string"
        }
      ],
      "stateMutability": "view",
      "type": "function"
    },
    {
      "inputs": [
        {
          "internalType": "uint256",
          "name": "tokenId",
          "type": "uint256"
        }
      ],
      "name": "ownerOf",
      "outputs": [
        {
          "internalType": "address",
          "name": "",
          "type": "address"
        }
      ],
      "stateMutability": "view",
      "type": "function"
    },
    {
      "inputs": [
        {
          "internalType": "address",
          "name": "from",
          "type": "address"
        },
        {
          "internalType": "address",
          "name": "to",
          "type": "address"
        },
        {
          "internalType": "uint256",
          "name": "tokenId",
          "type": "uint256"
        }
      ],
      "name": "performTokenTransfer",
      "outputs": [],
      "stateMutability": "nonpayable",
      "type": "function"
    },
    {
      "inputs": [
        {
          "internalType": "uint256",
          "name": "",
          "type": "uint256"
        }
      ],
      "name": "rental",
      "outputs": [
        {
          "internalType": "bool",
          "name": "",
          "type": "bool"
        }
      ],
      "stateMutability": "view",
      "type": "function"
    },
    {
      "inputs": [
        {
          "internalType": "address",
          "name": "from",
          "type": "address"
        },
        {
          "internalType": "address",
          "name": "to",
          "type": "address"
        },
        {
          "internalType": "uint256",
          "name": "tokenId",
          "type": "uint256"
        }
      ],
      "name": "safeTransferFrom",
      "outputs": [],
      "stateMutability": "nonpayable",
      "type": "function"
    },
    {
      "inputs": [
        {
          "internalType": "address",
          "name": "from",
          "type": "address"
        },
        {
          "internalType": "address",
          "name": "to",
          "type": "address"
        },
        {
          "internalType": "uint256",
          "name": "tokenId",
          "type": "uint256"
        },
        {
          "internalType": "bytes",
          "name": "_data",
          "type": "bytes"
        }
      ],
      "name": "safeTransferFrom",
      "outputs": [],
      "stateMutability": "nonpayable",
      "type": "function"
    },
    {
      "inputs": [
        {
          "internalType": "address",
          "name": "operator",
          "type": "address"
        },
        {
          "internalType": "bool",
          "name": "approved",
          "type": "bool"
        }
      ],
      "name": "setApprovalForAll",
      "outputs": [],
      "stateMutability": "nonpayable",
      "type": "function"
    },
    {
      "inputs": [
        {
          "internalType": "bytes4",
          "name": "interfaceId",
          "type": "bytes4"
        }
      ],
      "name": "supportsInterface",
      "outputs": [
        {
          "internalType": "bool",
          "name": "",
          "type": "bool"
        }
      ],
      "stateMutability": "view",
      "type": "function"
    },
    {
      "inputs": [],
      "name": "symbol",
      "outputs": [
        {
          "internalType": "string",
          "name": "",
          "type": "string"
        }
      ],
      "stateMutability": "view",
      "type": "function"
    },
    {
      "inputs": [
        {
          "internalType": "uint256",
          "name": "tokenId",
          "type": "uint256"
        }
      ],
      "name": "tokenURI",
      "outputs": [
        {
          "internalType": "string",
          "name": "",
          "type": "string"
        }
      ],
      "stateMutability": "view",
      "type": "function"
    },
    {
      "inputs": [
        {
          "internalType": "address",
          "name": "from",
          "type": "address"
        },
        {
          "internalType": "address",
          "name": "to",
          "type": "address"
        },
        {
          "internalType": "uint256",
          "name": "tokenId",
          "type": "uint256"
        }
      ],
      "name": "transferFrom",
      "outputs": [],
      "stateMutability": "nonpayable",
      "type": "function"
    }
  ],
  "bytecode": "0x60806040523480156200001157600080fd5b5060405162001aa338038062001aa3833981016040819052620000349162000168565b604080518082018252600b81526a14995b9d18589b1953919560aa1b60208083019182528351808501909452600384526214919560ea1b9084015281519192916200008291600091620000c2565b50805162000098906001906020840190620000c2565b5050600880546001600160a01b0319166001600160a01b03939093169290921790915550620001d5565b828054620000d09062000198565b90600052602060002090601f016020900481019282620000f457600085556200013f565b82601f106200010f57805160ff19168380011785556200013f565b828001600101855582156200013f579182015b828111156200013f57825182559160200191906001019062000122565b506200014d92915062000151565b5090565b5b808211156200014d576000815560010162000152565b6000602082840312156200017a578081fd5b81516001600160a01b038116811462000191578182fd5b9392505050565b600181811c90821680620001ad57607f821691505b60208210811415620001cf57634e487b7160e01b600052602260045260246000fd5b50919050565b6118be80620001e56000396000f3fe608060405234801561001057600080fd5b506004361061010b5760003560e01c80636352211e116100a2578063a22cb46511610071578063a22cb46514610238578063a2932c531461024b578063b88d4fde1461025e578063c87b56dd14610271578063e985e9c51461028457600080fd5b80636352211e146101e757806365c13850146101fa57806370a082311461021d57806395d89b411461023057600080fd5b806323b872dd116100de57806323b872dd1461018d57806332b95aa9146101a057806342842e0e146101b357806345576f94146101c657600080fd5b806301ffc9a71461011057806306fdde0314610138578063081812fc1461014d578063095ea7b314610178575b600080fd5b61012361011e366004611570565b6102c0565b60405190151581526020015b60405180910390f35b610140610312565b60405161012f919061169e565b61016061015b3660046115ee565b6103a4565b6040516001600160a01b03909116815260200161012f565b61018b61018636600461152c565b610431565b005b61018b61019b36600461144f565b610547565b61018b6101ae366004611555565b610578565b61018b6101c136600461144f565b6105f1565b6101d96101d43660046115a8565b61060c565b60405190815260200161012f565b6101606101f53660046115ee565b610653565b6101236102083660046115ee565b60096020526000908152604090205460ff1681565b6101d961022b366004611403565b6106ca565b610140610751565b61018b610246366004611503565b610760565b61018b61025936600461144f565b61076f565b61018b61026c36600461148a565b6107c9565b61014061027f3660046115ee565b610801565b61012361029236600461141d565b6001600160a01b03918216600090815260056020908152604080832093909416825291909152205460ff1690565b60006001600160e01b031982166380ac58cd60e01b14806102f157506001600160e01b03198216635b5e139f60e01b145b8061030c57506301ffc9a760e01b6001600160e01b03198316145b92915050565b606060008054610321906117c3565b80601f016020809104026020016040519081016040528092919081815260200182805461034d906117c3565b801561039a5780601f1061036f5761010080835404028352916020019161039a565b820191906000526020600020905b81548152906001019060200180831161037d57829003601f168201915b5050505050905090565b60006103af82610978565b6104155760405162461bcd60e51b815260206004820152602c60248201527f4552433732313a20617070726f76656420717565727920666f72206e6f6e657860448201526b34b9ba32b73a103a37b5b2b760a11b60648201526084015b60405180910390fd5b506000908152600460205260409020546001600160a01b031690565b600061043c82610653565b9050806001600160a01b0316836001600160a01b031614156104aa5760405162461bcd60e51b815260206004820152602160248201527f4552433732313a20617070726f76616c20746f2063757272656e74206f776e656044820152603960f91b606482015260840161040c565b336001600160a01b03821614806104c657506104c68133610292565b6105385760405162461bcd60e51b815260206004820152603860248201527f4552433732313a20617070726f76652063616c6c6572206973206e6f74206f7760448201527f6e6572206e6f7220617070726f76656420666f7220616c6c0000000000000000606482015260840161040c565b6105428383610995565b505050565b6105513382610a03565b61056d5760405162461bcd60e51b815260040161040c90611703565b610542838383610ae9565b6008546001600160a01b031633146105d25760405162461bcd60e51b815260206004820152601e60248201527f43616c6c6572206d75737420626520636f6e7472616374416464726573730000604482015260640161040c565b6000908152600960205260409020805460ff1916911515919091179055565b610542838383604051806020016040528060008152506107c9565b600061061c600780546001019055565b600061062760075490565b90506106333382610c94565b61063d8184610dd3565b60085461030c906001600160a01b031682610431565b6000818152600260205260408120546001600160a01b03168061030c5760405162461bcd60e51b815260206004820152602960248201527f4552433732313a206f776e657220717565727920666f72206e6f6e657869737460448201526832b73a103a37b5b2b760b91b606482015260840161040c565b60006001600160a01b0382166107355760405162461bcd60e51b815260206004820152602a60248201527f4552433732313a2062616c616e636520717565727920666f7220746865207a65604482015269726f206164647265737360b01b606482015260840161040c565b506001600160a01b031660009081526003602052604090205490565b606060018054610321906117c3565b61076b338383610e5e565b5050565b6008546001600160a01b0316331461056d5760405162461bcd60e51b815260206004820152601e60248201527f43616c6c6572206d75737420626520636f6e7472616374416464726573730000604482015260640161040c565b6107d33383610a03565b6107ef5760405162461bcd60e51b815260040161040c90611703565b6107fb84848484610f2d565b50505050565b606061080c82610978565b6108725760405162461bcd60e51b815260206004820152603160248201527f45524337323155524953746f726167653a2055524920717565727920666f72206044820152703737b732bc34b9ba32b73a103a37b5b2b760791b606482015260840161040c565b6000828152600660205260408120805461088b906117c3565b80601f01602080910402602001604051908101604052809291908181526020018280546108b7906117c3565b80156109045780601f106108d957610100808354040283529160200191610904565b820191906000526020600020905b8154815290600101906020018083116108e757829003601f168201915b50505050509050600061092260408051602081019091526000815290565b9050805160001415610935575092915050565b81511561096757808260405160200161094f929190611632565b60405160208183030381529060405292505050919050565b61097084610f60565b949350505050565b6000908152600260205260409020546001600160a01b0316151590565b600081815260046020526040902080546001600160a01b0319166001600160a01b03841690811790915581906109ca82610653565b6001600160a01b03167f8c5be1e5ebec7d5bd14f71427d1e84f3dd0314c0f7b2291e5b200ac8c7c3b92560405160405180910390a45050565b6000610a0e82610978565b610a6f5760405162461bcd60e51b815260206004820152602c60248201527f4552433732313a206f70657261746f7220717565727920666f72206e6f6e657860448201526b34b9ba32b73a103a37b5b2b760a11b606482015260840161040c565b6000610a7a83610653565b9050806001600160a01b0316846001600160a01b03161480610ab55750836001600160a01b0316610aaa846103a4565b6001600160a01b0316145b8061097057506001600160a01b0380821660009081526005602090815260408083209388168352929052205460ff16610970565b826001600160a01b0316610afc82610653565b6001600160a01b031614610b645760405162461bcd60e51b815260206004820152602960248201527f4552433732313a207472616e73666572206f6620746f6b656e2074686174206960448201526839903737ba1037bbb760b91b606482015260840161040c565b6001600160a01b038216610bc65760405162461bcd60e51b8152602060048201526024808201527f4552433732313a207472616e7366657220746f20746865207a65726f206164646044820152637265737360e01b606482015260840161040c565b610bd1838383611038565b610bdc600082610995565b6001600160a01b0383166000908152600360205260408120805460019290610c05908490611780565b90915550506001600160a01b0382166000908152600360205260408120805460019290610c33908490611754565b909155505060008181526002602052604080822080546001600160a01b0319166001600160a01b0386811691821790925591518493918716917fddf252ad1be2c89b69c2b068fc378daa952ba7f163c4a11628f55a4df523b3ef91a4505050565b6001600160a01b038216610cea5760405162461bcd60e51b815260206004820181905260248201527f4552433732313a206d696e7420746f20746865207a65726f2061646472657373604482015260640161040c565b610cf381610978565b15610d405760405162461bcd60e51b815260206004820152601c60248201527f4552433732313a20746f6b656e20616c7265616479206d696e74656400000000604482015260640161040c565b610d4c60008383611038565b6001600160a01b0382166000908152600360205260408120805460019290610d75908490611754565b909155505060008181526002602052604080822080546001600160a01b0319166001600160a01b03861690811790915590518392907fddf252ad1be2c89b69c2b068fc378daa952ba7f163c4a11628f55a4df523b3ef908290a45050565b610ddc82610978565b610e3f5760405162461bcd60e51b815260206004820152602e60248201527f45524337323155524953746f726167653a2055524920736574206f66206e6f6e60448201526d32bc34b9ba32b73a103a37b5b2b760911b606482015260840161040c565b60008281526006602090815260409091208251610542928401906112c8565b816001600160a01b0316836001600160a01b03161415610ec05760405162461bcd60e51b815260206004820152601960248201527f4552433732313a20617070726f766520746f2063616c6c657200000000000000604482015260640161040c565b6001600160a01b03838116600081815260056020908152604080832094871680845294825291829020805460ff191686151590811790915591519182527f17307eab39ab6107e8899845ad3d59bd9653f200f220920489ca2b5937696c31910160405180910390a3505050565b610f38848484610ae9565b610f44848484846110a1565b6107fb5760405162461bcd60e51b815260040161040c906116b1565b6060610f6b82610978565b610fcf5760405162461bcd60e51b815260206004820152602f60248201527f4552433732314d657461646174613a2055524920717565727920666f72206e6f60448201526e3732bc34b9ba32b73a103a37b5b2b760891b606482015260840161040c565b6000610fe660408051602081019091526000815290565b905060008151116110065760405180602001604052806000815250611031565b80611010846111ae565b604051602001611021929190611632565b6040516020818303038152906040525b9392505050565b60008181526009602052604090205460ff16156105425760405162461bcd60e51b815260206004820152602160248201527f52656e7461626c654e46543a207468697320746f6b656e2069732072656e74656044820152601960fa1b606482015260840161040c565b60006001600160a01b0384163b156111a357604051630a85bd0160e11b81526001600160a01b0385169063150b7a02906110e5903390899088908890600401611661565b602060405180830381600087803b1580156110ff57600080fd5b505af192505050801561112f575060408051601f3d908101601f1916820190925261112c9181019061158c565b60015b611189573d80801561115d576040519150601f19603f3d011682016040523d82523d6000602084013e611162565b606091505b5080516111815760405162461bcd60e51b815260040161040c906116b1565b805181602001fd5b6001600160e01b031916630a85bd0160e11b149050610970565b506001949350505050565b6060816111d25750506040805180820190915260018152600360fc1b602082015290565b8160005b81156111fc57806111e6816117fe565b91506111f59050600a8361176c565b91506111d6565b60008167ffffffffffffffff81111561122557634e487b7160e01b600052604160045260246000fd5b6040519080825280601f01601f19166020018201604052801561124f576020820181803683370190505b5090505b841561097057611264600183611780565b9150611271600a86611819565b61127c906030611754565b60f81b81838151811061129f57634e487b7160e01b600052603260045260246000fd5b60200101906001600160f81b031916908160001a9053506112c1600a8661176c565b9450611253565b8280546112d4906117c3565b90600052602060002090601f0160209004810192826112f6576000855561133c565b82601f1061130f57805160ff191683800117855561133c565b8280016001018555821561133c579182015b8281111561133c578251825591602001919060010190611321565b5061134892915061134c565b5090565b5b80821115611348576000815560010161134d565b600067ffffffffffffffff8084111561137c5761137c611859565b604051601f8501601f19908116603f011681019082821181831017156113a4576113a4611859565b816040528093508581528686860111156113bd57600080fd5b858560208301376000602087830101525050509392505050565b80356001600160a01b03811681146113ee57600080fd5b919050565b803580151581146113ee57600080fd5b600060208284031215611414578081fd5b611031826113d7565b6000806040838503121561142f578081fd5b611438836113d7565b9150611446602084016113d7565b90509250929050565b600080600060608486031215611463578081fd5b61146c846113d7565b925061147a602085016113d7565b9150604084013590509250925092565b6000806000806080858703121561149f578081fd5b6114a8856113d7565b93506114b6602086016113d7565b925060408501359150606085013567ffffffffffffffff8111156114d8578182fd5b8501601f810187136114e8578182fd5b6114f787823560208401611361565b91505092959194509250565b60008060408385031215611515578182fd5b61151e836113d7565b9150611446602084016113f3565b6000806040838503121561153e578182fd5b611547836113d7565b946020939093013593505050565b60008060408385031215611567578182fd5b611547836113f3565b600060208284031215611581578081fd5b81356110318161186f565b60006020828403121561159d578081fd5b81516110318161186f565b6000602082840312156115b9578081fd5b813567ffffffffffffffff8111156115cf578182fd5b8201601f810184136115df578182fd5b61097084823560208401611361565b6000602082840312156115ff578081fd5b5035919050565b6000815180845261161e816020860160208601611797565b601f01601f19169290920160200192915050565b60008351611644818460208801611797565b835190830190611658818360208801611797565b01949350505050565b6001600160a01b038581168252841660208201526040810183905260806060820181905260009061169490830184611606565b9695505050505050565b6020815260006110316020830184611606565b60208082526032908201527f4552433732313a207472616e7366657220746f206e6f6e20455243373231526560408201527131b2b4bb32b91034b6b83632b6b2b73a32b960711b606082015260800190565b60208082526031908201527f4552433732313a207472616e736665722063616c6c6572206973206e6f74206f6040820152701ddb995c881b9bdc88185c1c1c9bdd9959607a1b606082015260800190565b600082198211156117675761176761182d565b500190565b60008261177b5761177b611843565b500490565b6000828210156117925761179261182d565b500390565b60005b838110156117b257818101518382015260200161179a565b838111156107fb5750506000910152565b600181811c908216806117d757607f821691505b602082108114156117f857634e487b7160e01b600052602260045260246000fd5b50919050565b60006000198214156118125761181261182d565b5060010190565b60008261182857611828611843565b500690565b634e487b7160e01b600052601160045260246000fd5b634e487b7160e01b600052601260045260246000fd5b634e487b7160e01b600052604160045260246000fd5b6001600160e01b03198116811461188557600080fd5b5056fea2646970667358221220e0c557a443341614ce1bddb9ef922eb9831c125d51b427f088a00f69a3d41e8c64736f6c63430008040033",
  "linkReferences": {},
  "deployedLinkReferences": {}
}