{
  "_format": "hh-sol-artifact-1",
  "contractName": "RentalMarket",
  "sourceName": "contracts/RentalMarket.sol",
  "abi": [
    {
      "inputs": [],
      "stateMutability": "nonpayable",
      "type": "constructor"
    },
    {
      "anonymous": false,
      "inputs": [
        {
          "indexed": true,
          "internalType": "uint256",
          "name": "itemId",
          "type": "uint256"
        },
        {
          "indexed": false,
          "internalType": "bool",
          "name": "isActive",
          "type": "bool"
        },
        {
          "indexed": true,
          "internalType": "address",
          "name": "NFTContract",
          "type": "address"
        },
        {
          "indexed": true,
          "internalType": "uint256",
          "name": "tokenId",
          "type": "uint256"
        },
        {
          "indexed": false,
          "internalType": "address",
          "name": "seller",
          "type": "address"
        },
        {
          "indexed": false,
          "internalType": "address",
          "name": "renter",
          "type": "address"
        },
        {
          "indexed": false,
          "internalType": "uint256",
          "name": "price",
          "type": "uint256"
        },
        {
          "indexed": false,
          "internalType": "uint256",
          "name": "expiresAt",
          "type": "uint256"
        }
      ],
      "name": "MarketItemCreated",
      "type": "event"
    },
    {
      "inputs": [
        {
          "internalType": "address",
          "name": "nftContract",
          "type": "address"
        },
        {
          "internalType": "uint256",
          "name": "tokenId",
          "type": "uint256"
        },
        {
          "internalType": "uint256",
          "name": "price",
          "type": "uint256"
        },
        {
          "internalType": "uint256",
          "name": "expiresAt",
          "type": "uint256"
        }
      ],
      "name": "createMarketItem",
      "outputs": [],
      "stateMutability": "payable",
      "type": "function"
    },
    {
      "inputs": [],
      "name": "fetchItemsClaimable",
      "outputs": [
        {
          "components": [
            {
              "internalType": "uint256",
              "name": "itemId",
              "type": "uint256"
            },
            {
              "internalType": "bool",
              "name": "isActive",
              "type": "bool"
            },
            {
              "internalType": "address",
              "name": "NFTContract",
              "type": "address"
            },
            {
              "internalType": "uint256",
              "name": "tokenId",
              "type": "uint256"
            },
            {
              "internalType": "address payable",
              "name": "seller",
              "type": "address"
            },
            {
              "internalType": "address",
              "name": "renter",
              "type": "address"
            },
            {
              "internalType": "uint256",
              "name": "price",
              "type": "uint256"
            },
            {
              "internalType": "uint256",
              "name": "expiresAt",
              "type": "uint256"
            }
          ],
          "internalType": "struct RentalMarket.MarketItem[]",
          "name": "",
          "type": "tuple[]"
        }
      ],
      "stateMutability": "view",
      "type": "function"
    },
    {
      "inputs": [],
      "name": "fetchMarketItems",
      "outputs": [
        {
          "components": [
            {
              "internalType": "uint256",
              "name": "itemId",
              "type": "uint256"
            },
            {
              "internalType": "bool",
              "name": "isActive",
              "type": "bool"
            },
            {
              "internalType": "address",
              "name": "NFTContract",
              "type": "address"
            },
            {
              "internalType": "uint256",
              "name": "tokenId",
              "type": "uint256"
            },
            {
              "internalType": "address payable",
              "name": "seller",
              "type": "address"
            },
            {
              "internalType": "address",
              "name": "renter",
              "type": "address"
            },
            {
              "internalType": "uint256",
              "name": "price",
              "type": "uint256"
            },
            {
              "internalType": "uint256",
              "name": "expiresAt",
              "type": "uint256"
            }
          ],
          "internalType": "struct RentalMarket.MarketItem[]",
          "name": "",
          "type": "tuple[]"
        }
      ],
      "stateMutability": "view",
      "type": "function"
    },
    {
      "inputs": [],
      "name": "fetchMyNFTs",
      "outputs": [
        {
          "components": [
            {
              "internalType": "uint256",
              "name": "itemId",
              "type": "uint256"
            },
            {
              "internalType": "bool",
              "name": "isActive",
              "type": "bool"
            },
            {
              "internalType": "address",
              "name": "NFTContract",
              "type": "address"
            },
            {
              "internalType": "uint256",
              "name": "tokenId",
              "type": "uint256"
            },
            {
              "internalType": "address payable",
              "name": "seller",
              "type": "address"
            },
            {
              "internalType": "address",
              "name": "renter",
              "type": "address"
            },
            {
              "internalType": "uint256",
              "name": "price",
              "type": "uint256"
            },
            {
              "internalType": "uint256",
              "name": "expiresAt",
              "type": "uint256"
            }
          ],
          "internalType": "struct RentalMarket.MarketItem[]",
          "name": "",
          "type": "tuple[]"
        }
      ],
      "stateMutability": "view",
      "type": "function"
    },
    {
      "inputs": [],
      "name": "fetchRentedNFTs",
      "outputs": [
        {
          "components": [
            {
              "internalType": "uint256",
              "name": "itemId",
              "type": "uint256"
            },
            {
              "internalType": "bool",
              "name": "isActive",
              "type": "bool"
            },
            {
              "internalType": "address",
              "name": "NFTContract",
              "type": "address"
            },
            {
              "internalType": "uint256",
              "name": "tokenId",
              "type": "uint256"
            },
            {
              "internalType": "address payable",
              "name": "seller",
              "type": "address"
            },
            {
              "internalType": "address",
              "name": "renter",
              "type": "address"
            },
            {
              "internalType": "uint256",
              "name": "price",
              "type": "uint256"
            },
            {
              "internalType": "uint256",
              "name": "expiresAt",
              "type": "uint256"
            }
          ],
          "internalType": "struct RentalMarket.MarketItem[]",
          "name": "",
          "type": "tuple[]"
        }
      ],
      "stateMutability": "view",
      "type": "function"
    },
    {
      "inputs": [
        {
          "internalType": "uint256",
          "name": "itemId",
          "type": "uint256"
        }
      ],
      "name": "finishRenting",
      "outputs": [],
      "stateMutability": "nonpayable",
      "type": "function"
    },
    {
      "inputs": [],
      "name": "getListingPrice",
      "outputs": [
        {
          "internalType": "uint256",
          "name": "",
          "type": "uint256"
        }
      ],
      "stateMutability": "view",
      "type": "function"
    },
    {
      "inputs": [
        {
          "internalType": "uint256",
          "name": "itemId",
          "type": "uint256"
        }
      ],
      "name": "rentMarketItem",
      "outputs": [],
      "stateMutability": "payable",
      "type": "function"
    },
    {
      "inputs": [
        {
          "internalType": "uint256",
          "name": "_listingPrice",
          "type": "uint256"
        }
      ],
      "name": "setListingPrice",
      "outputs": [],
      "stateMutability": "nonpayable",
      "type": "function"
    }
  ],
  "bytecode": "0x60806040526658d15e1762800060055534801561001b57600080fd5b506001600055600480546001600160a01b03191633179055611916806100426000396000f3fe6080604052600436106100865760003560e01c80634de48be8116100595780634de48be8146100fe578063599ba2341461011357806369bac17e146101265780637c726b691461013b578063b8bb6d6e1461015b57600080fd5b80630f08efe01461008b57806312e85585146100b6578063202e3740146100d45780633107e5bb146100e9575b600080fd5b34801561009757600080fd5b506100a061017b565b6040516100ad9190611716565b60405180910390f35b3480156100c257600080fd5b506005546040519081526020016100ad565b3480156100e057600080fd5b506100a0610454565b6100fc6100f73660046116b6565b610643565b005b34801561010a57600080fd5b506100a06109bd565b6100fc61012136600461167c565b610bac565b34801561013257600080fd5b506100a0610efe565b34801561014757600080fd5b506100fc6101563660046116b6565b61115f565b34801561016757600080fd5b506100fc6101763660046116b6565b6111ca565b6060600061018860015490565b9050600061019560025490565b6001546101a29190611850565b90506000808267ffffffffffffffff8111156101ce57634e487b7160e01b600052604160045260246000fd5b60405190808252806020026020018201604052801561020757816020015b6101f46115f7565b8152602001906001900390816101ec5790505b5090506102396040518060400160405280600c81526020016b41646472657373205a65726f60a01b815250600061154c565b60005b8481101561044b57604080518082019091526007815266125d195b48125160ca1b602082015261028c9060066000610275856001611838565b815260200190815260200160002060000154611595565b60408051808201909152600b81526a24ba32b6902932b73a32b960a91b60208201526102e390600660006102c1856001611838565b81526020810191909152604001600020600401546001600160a01b031661154c565b600660006102f2836001611838565b81526020810191909152604001600020541580159061033b5750600060068161031c846001611838565b81526020810191909152604001600020600401546001600160a01b0316145b1561043957600061034d826001611838565b905061037f6040518060400160405280600e81526020016d125d195b4813db8813585c9ad95d60921b81525083611595565b6000818152600660208181526040928390208351610100808201865282548252600183015460ff81161515948301949094529092046001600160a01b039081169483019490945260028101546060830152600381015484166080830152600481015490931660a0820152600583015460c08201529082015460e0820152845185908790811061041e57634e487b7160e01b600052603260045260246000fd5b6020908102919091010152610434600186611838565b945050505b8061044381611897565b91505061023c565b50949350505050565b6060600061046160015490565b905060008060005b838110156104c4573360066000610481846001611838565b81526020810191909152604001600020600301546001600160a01b031614156104b2576104af600184611838565b92505b806104bc81611897565b915050610469565b5060008267ffffffffffffffff8111156104ee57634e487b7160e01b600052604160045260246000fd5b60405190808252806020026020018201604052801561052757816020015b6105146115f7565b81526020019060019003908161050c5790505b50905060005b8481101561044b573360066000610545846001611838565b81526020810191909152604001600020600301546001600160a01b03161415610631576000610575826001611838565b6000818152600660208181526040928390208351610100808201865282548252600183015460ff81161515948301949094526001600160a01b03930483169481019490945260028101546060850152600381015482166080850152600481015490911660a0840152600581015460c08401529081015460e083015285519293509185908790811061061657634e487b7160e01b600052603260045260246000fd5b602090810291909101015261062c600186611838565b945050505b8061063b81611897565b91505061052d565b6002600054141561066f5760405162461bcd60e51b815260040161066690611801565b60405180910390fd5b60026000818155828152600660205260409020600581015491810154909190348214610705576040805162461bcd60e51b81526020600482015260248101919091527f506c65617365207375626d6974207468652061736b696e67207072696365206960448201527f6e206f7264657220746f20636f6d706c657465207468652070757263686173656064820152608401610666565b60018301546040516331a9108f60e11b815260048101839052309161010090046001600160a01b031690636352211e9060240160206040518083038186803b15801561075057600080fd5b505afa158015610764573d6000803e3d6000fd5b505050506040513d601f19601f820116820180604052508101906107889190611659565b6001600160a01b0316146107ea5760405162461bcd60e51b8152602060048201526024808201527f5468697320546f6b656e204973204e6f7420417661696c61626c6520466f722060448201526314995b9d60e21b6064820152608401610666565b60038301546040516001600160a01b03909116903480156108fc02916000818181858888f19350505050158015610825573d6000803e3d6000fd5b5060018301546040516323b872dd60e01b8152306004820152336024820152604481018390526101009091046001600160a01b0316906323b872dd90606401600060405180830381600087803b15801561087e57600080fd5b505af1158015610892573d6000803e3d6000fd5b505050506001838101546040516024810192909252604482018390526000916101009091046001600160a01b03169060640160408051601f198184030181529181526020820180516001600160e01b03166332b95aa960e01b179052516108f991906116fa565b6000604051808303816000865af19150503d8060008114610936576040519150601f19603f3d011682016040523d82523d6000602084013e61093b565b606091505b505090508061094957600080fd5b60008581526006602081905260409091200154610967904290611838565b6000868152600660208190526040909120908101919091556004810180546001600160a01b031916331790556001908101805460ff191690911790556109b1600280546001019055565b50506001600055505050565b606060006109ca60015490565b905060008060005b83811015610a2d5733600660006109ea846001611838565b81526020810191909152604001600020600401546001600160a01b03161415610a1b57610a18600184611838565b92505b80610a2581611897565b9150506109d2565b5060008267ffffffffffffffff811115610a5757634e487b7160e01b600052604160045260246000fd5b604051908082528060200260200182016040528015610a9057816020015b610a7d6115f7565b815260200190600190039081610a755790505b50905060005b8481101561044b573360066000610aae846001611838565b81526020810191909152604001600020600401546001600160a01b03161415610b9a576000610ade826001611838565b6000818152600660208181526040928390208351610100808201865282548252600183015460ff81161515948301949094526001600160a01b03930483169481019490945260028101546060850152600381015482166080850152600481015490911660a0840152600581015460c08401529081015460e0830152855192935091859087908110610b7f57634e487b7160e01b600052603260045260246000fd5b6020908102919091010152610b95600186611838565b945050505b80610ba481611897565b915050610a96565b60026000541415610bcf5760405162461bcd60e51b815260040161066690611801565b600260005581610c215760405162461bcd60e51b815260206004820152601c60248201527f5072696365206d757374206265206174206c65617374203120776569000000006044820152606401610666565b6005543414610c7e5760405162461bcd60e51b8152602060048201526024808201527f5072696365206d75737420626520657175616c20746f206c697374696e6720706044820152637269636560e01b6064820152608401610666565b610c8c600180546001019055565b6000610c9760015490565b9050604051806101000160405280828152602001600015158152602001866001600160a01b03168152602001858152602001336001600160a01b0316815260200160006001600160a01b0316815260200184815260200183815250600660008381526020019081526020016000206000820151816000015560208201518160010160006101000a81548160ff02191690831515021790555060408201518160010160016101000a8154816001600160a01b0302191690836001600160a01b031602179055506060820151816002015560808201518160030160006101000a8154816001600160a01b0302191690836001600160a01b0316021790555060a08201518160040160006101000a8154816001600160a01b0302191690836001600160a01b0316021790555060c0820151816005015560e08201518160060155905050846001600160a01b03166323b872dd3330876040518463ffffffff1660e01b8152600401610e26939291906001600160a01b039384168152919092166020820152604081019190915260600190565b600060405180830381600087803b158015610e4057600080fd5b505af1158015610e54573d6000803e3d6000fd5b50506004546005546040516001600160a01b03909216935080156108fc029250906000818181858888f19350505050158015610e94573d6000803e3d6000fd5b50604080516000808252336020830152818301526060810185905260808101849052905185916001600160a01b0388169184917f90ff26942c17b6c2414e13d762404fd07deca541df68195b50d38a51bfa993b5919081900360a00190a450506001600055505050565b60606000610f0b60015490565b9050600080610f3a6040518060400160405280600881526020016754696d65204e6f7760c01b81525042611595565b60005b83811015610fbc5760066000610f54836001611838565b815260208101919091526040016000206001015460ff168015610f9757504260066000610f82846001611838565b81526020019081526020016000206006015411155b15610faa57610fa7600184611838565b92505b80610fb481611897565b915050610f3d565b5060008267ffffffffffffffff811115610fe657634e487b7160e01b600052604160045260246000fd5b60405190808252806020026020018201604052801561101f57816020015b61100c6115f7565b8152602001906001900390816110045790505b50905060005b8481101561044b576006600061103c836001611838565b815260208101919091526040016000206001015460ff16801561107f5750426006600061106a846001611838565b81526020019081526020016000206006015411155b1561114d576000611091826001611838565b6000818152600660208181526040928390208351610100808201865282548252600183015460ff81161515948301949094526001600160a01b03930483169481019490945260028101546060850152600381015482166080850152600481015490911660a0840152600581015460c08401529081015460e083015285519293509185908790811061113257634e487b7160e01b600052603260045260246000fd5b6020908102919091010152611148600186611838565b945050505b8061115781611897565b915050611025565b6004546001600160a01b031633146111c55760405162461bcd60e51b815260206004820152602360248201527f4f6e6c79204f776e65722043616e2041636365737320546869732046756e637460448201526234b7b760e91b6064820152608401610666565b600555565b600260005414156111ed5760405162461bcd60e51b815260040161066690611801565b6002600090815581815260066020526040902060048101546001600160a01b031633148061121f575080600601544210155b6112755760405162461bcd60e51b815260206004820152602160248201527f52656e7461626c654e46543a207468697320746f6b656e2069732072656e74656044820152601960fa1b6064820152608401610666565b600181015460ff166112be5760405162461bcd60e51b8152602060048201526012602482015271139195081a5cc81b9bdd081bdb881c995b9d60721b6044820152606401610666565b60018101805460ff19169081905560028201546040516000602482018190526044820192909252909161010090046001600160a01b03169060640160408051601f198184030181529181526020820180516001600160e01b03166332b95aa960e01b1790525161132e91906116fa565b6000604051808303816000865af19150503d806000811461136b576040519150601f19603f3d011682016040523d82523d6000602084013e611370565b606091505b505090508061137e57600080fd5b60018201546004830154600384015460028501546040516001600160a01b0393841660248201529183166044830152606482015260009261010090049091169060840160408051601f198184030181529181526020820180516001600160e01b031663a2932c5360e01b179052516113f691906116fa565b6000604051808303816000865af19150503d8060008114611433576040519150601f19603f3d011682016040523d82523d6000602084013e611438565b606091505b505090508061144657600080fd5b60408051808201909152601f81527f52656e74657220416464726573732046726f6d20436f6e74726163742d3e20006020820152600484015461149291906001600160a01b031661154c565b60408051808201909152601f81527f53656c6c657220416464726573732046726f6d20436f6e74726163742d3e2000602082015260038401546114de91906001600160a01b031661154c565b6114ec600380546001019055565b50505060009081526006602081905260408220828155600180820180546001600160a81b0319169055600282018490556003820180546001600160a01b031990811690915560048301805490911690556005820184905591018290559055565b61159182826040516024016115629291906117b5565b60408051601f198184030181529190526020810180516001600160e01b031663319af33360e01b1790526115d6565b5050565b61159182826040516024016115ab9291906117df565b60408051601f198184030181529190526020810180516001600160e01b03166309710a9d60e41b1790525b80516a636f6e736f6c652e6c6f67602083016000808483855afa5050505050565b6040518061010001604052806000815260200160001515815260200160006001600160a01b031681526020016000815260200160006001600160a01b0316815260200160006001600160a01b0316815260200160008152602001600081525090565b60006020828403121561166a578081fd5b8151611675816118c8565b9392505050565b60008060008060808587031215611691578283fd5b843561169c816118c8565b966020860135965060408601359560600135945092505050565b6000602082840312156116c7578081fd5b5035919050565b600081518084526116e6816020860160208601611867565b601f01601f19169290920160200192915050565b6000825161170c818460208701611867565b9190910192915050565b602080825282518282018190526000919060409081850190868401855b828110156117a85781518051855286810151151587860152858101516001600160a01b03908116878701526060808301519087015260808083015182169087015260a0808301519091169086015260c0808201519086015260e090810151908501526101009093019290850190600101611733565b5091979650505050505050565b6040815260006117c860408301856116ce565b905060018060a01b03831660208301529392505050565b6040815260006117f260408301856116ce565b90508260208301529392505050565b6020808252601f908201527f5265656e7472616e637947756172643a207265656e7472616e742063616c6c00604082015260600190565b6000821982111561184b5761184b6118b2565b500190565b600082821015611862576118626118b2565b500390565b60005b8381101561188257818101518382015260200161186a565b83811115611891576000848401525b50505050565b60006000198214156118ab576118ab6118b2565b5060010190565b634e487b7160e01b600052601160045260246000fd5b6001600160a01b03811681146118dd57600080fd5b5056fea26469706673582212203f171cb73ec22244863d86d9129637e8aed572dfe75901bf036e7931714db1a664736f6c63430008040033",
  "linkReferences": {},
  "deployedLinkReferences": {}
}